{
  "_format": "hh-sol-artifact-1",
  "contractName": "WavePortal",
  "sourceName": "contracts/WavePortal.sol",
  "abi": [
    {
      "inputs": [],
      "stateMutability": "nonpayable",
      "type": "constructor"
    },
    {
      "inputs": [],
      "name": "getMappedWaves",
      "outputs": [
        {
          "internalType": "uint256",
          "name": "",
          "type": "uint256"
        }
      ],
      "stateMutability": "view",
      "type": "function"
    },
    {
      "inputs": [],
      "name": "wave",
      "outputs": [],
      "stateMutability": "nonpayable",
      "type": "function"
    },
    {
      "inputs": [
        {
          "internalType": "uint256",
          "name": "",
          "type": "uint256"
        }
      ],
      "name": "wavesMapping",
      "outputs": [
        {
          "internalType": "address",
          "name": "cryptoAddress",
          "type": "address"
        },
        {
          "internalType": "uint256",
          "name": "wave",
          "type": "uint256"
        }
      ],
      "stateMutability": "view",
      "type": "function"
    }
  ],
  "bytecode": "0x608060405234801561001057600080fd5b5061003c6040518060600160405280602581526020016108a96025913961004160201b6102981760201c565b6101c4565b6100dd816040516024016100559190610142565b6040516020818303038152906040527f41304fac000000000000000000000000000000000000000000000000000000007bffffffffffffffffffffffffffffffffffffffffffffffffffffffff19166020820180517bffffffffffffffffffffffffffffffffffffffffffffffffffffffff83818316178352505050506100e060201b60201c565b50565b60008151905060006a636f6e736f6c652e6c6f679050602083016000808483855afa5050505050565b600061011482610164565b61011e818561016f565b935061012e818560208601610180565b610137816101b3565b840191505092915050565b6000602082019050818103600083015261015c8184610109565b905092915050565b600081519050919050565b600082825260208201905092915050565b60005b8381101561019e578082015181840152602081019050610183565b838111156101ad576000848401525b50505050565b6000601f19601f8301169050919050565b6106d6806101d36000396000f3fe608060405234801561001057600080fd5b50600436106100415760003560e01c80636fe15b4414610046578063b2bdb20514610050578063c271673b14610081575b600080fd5b61004e61009f565b005b61006a600480360381019061006591906104a7565b6101f3565b604051610078929190610527565b60405180910390f35b610089610247565b60405161009691906105d2565b60405180910390f35b33600160000160006101000a81548173ffffffffffffffffffffffffffffffffffffffff021916908373ffffffffffffffffffffffffffffffffffffffff160217905550600180600101819055506000600190806001815401808255809150506001900390600052602060002090600202016000909190919091506000820160009054906101000a900473ffffffffffffffffffffffffffffffffffffffff168160000160006101000a81548173ffffffffffffffffffffffffffffffffffffffff021916908373ffffffffffffffffffffffffffffffffffffffff1602179055506001820154816001015550506101f16040518060400160405280601281526020017f257320686173207761766564206c697374210000000000000000000000000000815250600160000160009054906101000a900473ffffffffffffffffffffffffffffffffffffffff16610331565b565b6000818154811061020357600080fd5b90600052602060002090600202016000915090508060000160009054906101000a900473ffffffffffffffffffffffffffffffffffffffff16908060010154905082565b600061028d6040518060400160405280601781526020017f5765206861766520256420746f74616c207761766573210000000000000000008152506000805490506103cd565b600080549050905090565b61032e816040516024016102ac9190610550565b6040516020818303038152906040527f41304fac000000000000000000000000000000000000000000000000000000007bffffffffffffffffffffffffffffffffffffffffffffffffffffffff19166020820180517bffffffffffffffffffffffffffffffffffffffffffffffffffffffff8381831617835250505050610469565b50565b6103c98282604051602401610347929190610572565b6040516020818303038152906040527f319af333000000000000000000000000000000000000000000000000000000007bffffffffffffffffffffffffffffffffffffffffffffffffffffffff19166020820180517bffffffffffffffffffffffffffffffffffffffffffffffffffffffff8381831617835250505050610469565b5050565b61046582826040516024016103e39291906105a2565b6040516020818303038152906040527f9710a9d0000000000000000000000000000000000000000000000000000000007bffffffffffffffffffffffffffffffffffffffffffffffffffffffff19166020820180517bffffffffffffffffffffffffffffffffffffffffffffffffffffffff8381831617835250505050610469565b5050565b60008151905060006a636f6e736f6c652e6c6f679050602083016000808483855afa5050505050565b6000813590506104a181610689565b92915050565b6000602082840312156104b957600080fd5b60006104c784828501610492565b91505092915050565b6104d981610609565b82525050565b60006104ea826105ed565b6104f481856105f8565b9350610504818560208601610645565b61050d81610678565b840191505092915050565b6105218161063b565b82525050565b600060408201905061053c60008301856104d0565b6105496020830184610518565b9392505050565b6000602082019050818103600083015261056a81846104df565b905092915050565b6000604082019050818103600083015261058c81856104df565b905061059b60208301846104d0565b9392505050565b600060408201905081810360008301526105bc81856104df565b90506105cb6020830184610518565b9392505050565b60006020820190506105e76000830184610518565b92915050565b600081519050919050565b600082825260208201905092915050565b60006106148261061b565b9050919050565b600073ffffffffffffffffffffffffffffffffffffffff82169050919050565b6000819050919050565b60005b83811015610663578082015181840152602081019050610648565b83811115610672576000848401525b50505050565b6000601f19601f8301169050919050565b6106928161063b565b811461069d57600080fd5b5056fea2646970667358221220a4bf33e8f648acc4c106734f2b48199a870630fb471368ef4b616aa807091e8364736f6c63430008000033596f20796f2c204920616d206120636f6e747261637420616e64204920616d20736d617274",
  "linkReferences": {},
  "deployedLinkReferences": {}
}